:020000040800F2
:10000000002800204D020008F1010008F701000857
:10001000FD010008030200080902000800000000BA
:100020000000000000000000000000000F020008B7
:100030001B0200080000000027020008330200082D
:100040009502000895020008950200089502000834
:100050009502000895020008950200089502000824
:100060009502000895020008950200089502000814
:100070009502000895020008950200089502000804
:1000800095020008950200089502000895020008F4
:1000900095020008950200089502000895020008E4
:1000A00095020008950200089502000895020008D4
:1000B0009502000895020008000000009502000863
:1000C00095020008000000000000000095020008F2
:1000D00000000000950200089502000800000000E2
:1000E0009502000895020008950200080000000033
:1000F0000000000000000000000000000000000000
:0C01000000000000000000005FF808F1A3
:10010C0010B5054C237833B9044B13B10448AFF345
:10011C0000800123237010BD0C00002000000000A3
:10012C00E405000808B5034B1BB103490348AFF3C2
:10013C00008008BD0000000010000020E40500084D
:10014C0080B500AF00F0A2F800F00EF800F012F845
:10015C002021044800F003FA4FF47A7000F0F8F80C
:10016C00F6E700BF0008014080B400AF00BFBD46F9
:10017C0080BC704780B400AF00BFBD4680BC7047E8
:10018C0080B485B000AF154B9B69144A43F0010352
:10019C009361124B9B6903F00103BB60BB680F4B6F
:1001AC00DB690E4A43F08053D3610C4BDB6903F0DF
:1001BC0080537B607B680A4B5B68FB60FB6823F0B9
:1001CC00E063FB60FB6843F08063FB60044AFB6800
:1001DC00536000BF1437BD4680BC7047001002400E
:1001EC000000014080B400AFFEE780B400AFFEE732
:1001FC0080B400AFFEE780B400AFFEE780B400AF80
:10020C00FEE780B400AF00BFBD4680BC704780B431
:10021C0000AF00BFBD4680BC704780B400AF00BFCC
:10022C00BD4680BC704780B500AF00F075F800BFCC
:10023C0080BD80B400AF00BFBD4680BC70470000DD
:10024C00FFF7F7FF0B480C490C4A002302E0D45887
:10025C00C4500433C4188C42F9D3094A094C002306
:10026C0001E013600432A242FBD300F091F9FFF7D6
:10027C0067FF7047000000200C00002004060008F7
:10028C000C0000202C000020FEE7000080B500AF21
:10029C00084B1B68074A43F010031360032000F05F
:1002AC002BF90F2000F008F8FFF76AFF002318461F
:1002BC0080BD00BF0020024080B582B000AF7860E6
:1002CC00124B1A68124B1B7819464FF47A73B3FB16
:1002DC00F1F3B2FBF3F3184600F035F90346002BAB
:1002EC0001D001230EE07B680F2B0AD8002279681D
:1002FC004FF0FF3000F00BF9064A7B6813600023C7
:10030C0000E0012318460837BD4680BD00000020E0
:10031C00080000200400002080B400AF054B1B78BF
:10032C001A46054B1B681344034A136000BFBD46B5
:10033C0080BC7047080000202800002080B400AF6B
:10034C00024B1B681846BD4680BC70472800002035
:10035C0080B584B000AF7860FFF7F0FFB8607B68C1
:10036C00FB60FB68B3F1FF3F05D00A4B1B781A46C4
:10037C00FB681344FB6000BFFFF7E0FF0246BB685D
:10038C00D31AFA689A42F7D800BF00BF1037BD469F
:10039C0080BD00BF0800002080B485B000AF78603D
:1003AC007B6803F00703FB600C4BDB68BB60BA682F
:1003BC004FF6FF031340BB60FB681A02BB68134384
:1003CC0043F0BF6343F40033BB60044ABB68D360A3
:1003DC0000BF1437BD4680BC704700BF00ED00E085
:1003EC0080B400AF044BDB681B0A03F0070318460C
:1003FC00BD4680BC704700BF00ED00E080B483B008
:10040C0000AF03463960FB7197F90730002B0ADB0C
:10041C003B68DAB20C4997F907301201D2B20B449F
:10042C0083F800230AE03B68DAB20849FB7903F051
:10043C000F03043B1201D2B20B441A7600BF0C37E7
:10044C00BD4680BC704700BF00E100E000ED00E05D
:10045C0080B489B000AFF860B9607A60FB6803F0D3
:10046C000703FB61FB69C3F10703042B28BF0423BB
:10047C00BB61FB690433062B02D9FB69033B00E02B
:10048C0000237B614FF0FF32BB6902FA03F3DA43BE
:10049C00BB681A407B699A404FF0FF317B6901FAC7
:1004AC0003F3D9437B680B40134318462437BD46EE
:1004BC0080BC704780B582B000AF78607B68013B30
:1004CC00B3F1807F01D301230FE00A4A7B68013B23
:1004DC0053600F214FF0FF30FFF790FF054B0022C8
:1004EC009A60044B07221A60002318460837BD4651
:1004FC0080BD00BF10E000E080B582B000AF786036
:10050C007868FFF749FF00BF0837BD4680BD80B54E
:10051C0086B000AF0346B9607A60FB7300237B6141
:10052C00FFF75EFF78617A68B9687869FFF790FF2A
:10053C00024697F90F3011461846FFF75FFF00BFD0
:10054C001837BD4680BD80B582B000AF7860786842
:10055C00FFF7B0FF034618460837BD4680BD80B490
:10056C0085B000AF78600B467B807B68DB68FB60F6
:10057C007A88FB6813401A04FB68D9437B880B40CC
:10058C001A437B681A6100BF1437BD4680BC7047A4
:10059C0070B500260C4D0D4C641BA410A64209D15D
:1005AC0000F01AF800260A4D0A4C641BA410A6424F
:1005BC0005D170BD55F8043B98470136EEE755F868
:1005CC00043B98470136F2E7FC050008FC050008DF
:1005DC00FC05000800060008F8B500BFF8BC08BC14
:1005EC009E467047F8B500BFF8BC08BC9E467047E5
:0405FC0031010008C1
:040600000D010008E0
:0C0604000024F4001000000001000000C1
:040000050800024DA0
:00000001FF
